{
  "_format": "hh-sol-artifact-1",
  "contractName": "OperationLogger",
  "sourceName": "contracts/OperationLogger.sol",
  "abi": [
    {
      "anonymous": false,
      "inputs": [
        {
          "indexed": true,
          "internalType": "address",
          "name": "operator",
          "type": "address"
        },
        {
          "indexed": true,
          "internalType": "uint256",
          "name": "timestamp",
          "type": "uint256"
        },
        {
          "indexed": false,
          "internalType": "string",
          "name": "action",
          "type": "string"
        },
        {
          "indexed": false,
          "internalType": "uint256",
          "name": "logId",
          "type": "uint256"
        }
      ],
      "name": "OperationLogged",
      "type": "event"
    },
    {
      "inputs": [],
      "name": "getLogCount",
      "outputs": [
        {
          "internalType": "uint256",
          "name": "",
          "type": "uint256"
        }
      ],
      "stateMutability": "view",
      "type": "function"
    },
    {
      "inputs": [
        {
          "internalType": "uint256",
          "name": "_index",
          "type": "uint256"
        }
      ],
      "name": "getLogEntry",
      "outputs": [
        {
          "internalType": "address",
          "name": "operator",
          "type": "address"
        },
        {
          "internalType": "uint256",
          "name": "timestamp",
          "type": "uint256"
        },
        {
          "internalType": "string",
          "name": "action",
          "type": "string"
        }
      ],
      "stateMutability": "view",
      "type": "function"
    },
    {
      "inputs": [],
      "name": "getRecentLogs",
      "outputs": [
        {
          "components": [
            {
              "internalType": "address",
              "name": "operator",
              "type": "address"
            },
            {
              "internalType": "uint256",
              "name": "timestamp",
              "type": "uint256"
            },
            {
              "internalType": "string",
              "name": "action",
              "type": "string"
            }
          ],
          "internalType": "struct OperationLogger.LogEntry[]",
          "name": "",
          "type": "tuple[]"
        }
      ],
      "stateMutability": "view",
      "type": "function"
    },
    {
      "inputs": [],
      "name": "logCount",
      "outputs": [
        {
          "internalType": "uint256",
          "name": "",
          "type": "uint256"
        }
      ],
      "stateMutability": "view",
      "type": "function"
    },
    {
      "inputs": [
        {
          "internalType": "string",
          "name": "_action",
          "type": "string"
        }
      ],
      "name": "logOperation",
      "outputs": [],
      "stateMutability": "nonpayable",
      "type": "function"
    },
    {
      "inputs": [
        {
          "internalType": "uint256",
          "name": "",
          "type": "uint256"
        }
      ],
      "name": "recentLogs",
      "outputs": [
        {
          "internalType": "address",
          "name": "operator",
          "type": "address"
        },
        {
          "internalType": "uint256",
          "name": "timestamp",
          "type": "uint256"
        },
        {
          "internalType": "string",
          "name": "action",
          "type": "string"
        }
      ],
      "stateMutability": "view",
      "type": "function"
    }
  ],
  "bytecode": "0x6080604052348015600f57600080fd5b506112998061001f6000396000f3fe608060405234801561001057600080fd5b50600436106100625760003560e01c80632fad7c2814610067578063618033db1461008357806377f2e2bf146100a157806391274737146100bf578063a503898f146100f1578063d16ac0de1461010f575b600080fd5b610081600480360381019061007c919061096d565b610141565b005b61008b610445565b60405161009891906109cf565b60405180910390f35b6100a961044f565b6040516100b69190610bcb565b60405180910390f35b6100d960048036038101906100d49190610c19565b6105a0565b6040516100e893929190610c9f565b60405180910390f35b6100f9610682565b60405161010691906109cf565b60405180910390f35b61012960048036038101906101249190610c19565b610688565b60405161013893929190610c9f565b60405180910390f35b600042905060003390506001600081548092919061015e90610d0c565b9190505550600060405180606001604052808373ffffffffffffffffffffffffffffffffffffffff16815260200184815260200185815250905060326000805490501061034b5760005b60016000805490506101ba9190610d54565b8110156102a75760006001826101d09190610d88565b815481106101e1576101e0610dbc565b5b90600052602060002090600302016000828154811061020357610202610dbc565b5b90600052602060002090600302016000820160009054906101000a900473ffffffffffffffffffffffffffffffffffffffff168160000160006101000a81548173ffffffffffffffffffffffffffffffffffffffff021916908373ffffffffffffffffffffffffffffffffffffffff1602179055506001820154816001015560028201816002019081610296919061100d565b5090505080806001019150506101a8565b5080600060016000805490506102bd9190610d54565b815481106102ce576102cd610dbc565b5b906000526020600020906003020160008201518160000160006101000a81548173ffffffffffffffffffffffffffffffffffffffff021916908373ffffffffffffffffffffffffffffffffffffffff16021790555060208201518160010155604082015181600201908161034291906110f5565b509050506103e1565b600081908060018154018082558091505060019003906000526020600020906003020160009091909190915060008201518160000160006101000a81548173ffffffffffffffffffffffffffffffffffffffff021916908373ffffffffffffffffffffffffffffffffffffffff1602179055506020820151816001015560408201518160020190816103dd91906110f5565b5050505b828273ffffffffffffffffffffffffffffffffffffffff167f61617d55d87b68c8c6907ba02537c938ae8694a2de1ec8ede62bc82827ec0c6f86600180546104299190610d54565b6040516104379291906111c7565b60405180910390a350505050565b6000600154905090565b60606000805480602002602001604051908101604052809291908181526020016000905b8282101561059757838290600052602060002090600302016040518060600160405290816000820160009054906101000a900473ffffffffffffffffffffffffffffffffffffffff1673ffffffffffffffffffffffffffffffffffffffff1673ffffffffffffffffffffffffffffffffffffffff1681526020016001820154815260200160028201805461050690610e1a565b80601f016020809104026020016040519081016040528092919081815260200182805461053290610e1a565b801561057f5780601f106105545761010080835404028352916020019161057f565b820191906000526020600020905b81548152906001019060200180831161056257829003601f168201915b50505050508152505081526020019060010190610473565b50505050905090565b600081815481106105b057600080fd5b90600052602060002090600302016000915090508060000160009054906101000a900473ffffffffffffffffffffffffffffffffffffffff16908060010154908060020180546105ff90610e1a565b80601f016020809104026020016040519081016040528092919081815260200182805461062b90610e1a565b80156106785780601f1061064d57610100808354040283529160200191610678565b820191906000526020600020905b81548152906001019060200180831161065b57829003601f168201915b5050505050905083565b60015481565b600080606060008054905084106106d4576040517f08c379a00000000000000000000000000000000000000000000000000000000081526004016106cb90611243565b60405180910390fd5b60008085815481106106e9576106e8610dbc565b5b90600052602060002090600302016040518060600160405290816000820160009054906101000a900473ffffffffffffffffffffffffffffffffffffffff1673ffffffffffffffffffffffffffffffffffffffff1673ffffffffffffffffffffffffffffffffffffffff1681526020016001820154815260200160028201805461077290610e1a565b80601f016020809104026020016040519081016040528092919081815260200182805461079e90610e1a565b80156107eb5780601f106107c0576101008083540402835291602001916107eb565b820191906000526020600020905b8154815290600101906020018083116107ce57829003601f168201915b5050505050815250509050806000015181602001518260400151935093509350509193909250565b6000604051905090565b600080fd5b600080fd5b600080fd5b600080fd5b6000601f19601f8301169050919050565b7f4e487b7100000000000000000000000000000000000000000000000000000000600052604160045260246000fd5b61087a82610831565b810181811067ffffffffffffffff8211171561089957610898610842565b5b80604052505050565b60006108ac610813565b90506108b88282610871565b919050565b600067ffffffffffffffff8211156108d8576108d7610842565b5b6108e182610831565b9050602081019050919050565b82818337600083830152505050565b600061091061090b846108bd565b6108a2565b90508281526020810184848401111561092c5761092b61082c565b5b6109378482856108ee565b509392505050565b600082601f83011261095457610953610827565b5b81356109648482602086016108fd565b91505092915050565b6000602082840312156109835761098261081d565b5b600082013567ffffffffffffffff8111156109a1576109a0610822565b5b6109ad8482850161093f565b91505092915050565b6000819050919050565b6109c9816109b6565b82525050565b60006020820190506109e460008301846109c0565b92915050565b600081519050919050565b600082825260208201905092915050565b6000819050602082019050919050565b600073ffffffffffffffffffffffffffffffffffffffff82169050919050565b6000610a4182610a16565b9050919050565b610a5181610a36565b82525050565b610a60816109b6565b82525050565b600081519050919050565b600082825260208201905092915050565b60005b83811015610aa0578082015181840152602081019050610a85565b60008484015250505050565b6000610ab782610a66565b610ac18185610a71565b9350610ad1818560208601610a82565b610ada81610831565b840191505092915050565b6000606083016000830151610afd6000860182610a48565b506020830151610b106020860182610a57565b5060408301518482036040860152610b288282610aac565b9150508091505092915050565b6000610b418383610ae5565b905092915050565b6000602082019050919050565b6000610b61826109ea565b610b6b81856109f5565b935083602082028501610b7d85610a06565b8060005b85811015610bb95784840389528151610b9a8582610b35565b9450610ba583610b49565b925060208a01995050600181019050610b81565b50829750879550505050505092915050565b60006020820190508181036000830152610be58184610b56565b905092915050565b610bf6816109b6565b8114610c0157600080fd5b50565b600081359050610c1381610bed565b92915050565b600060208284031215610c2f57610c2e61081d565b5b6000610c3d84828501610c04565b91505092915050565b610c4f81610a36565b82525050565b600082825260208201905092915050565b6000610c7182610a66565b610c7b8185610c55565b9350610c8b818560208601610a82565b610c9481610831565b840191505092915050565b6000606082019050610cb46000830186610c46565b610cc160208301856109c0565b8181036040830152610cd38184610c66565b9050949350505050565b7f4e487b7100000000000000000000000000000000000000000000000000000000600052601160045260246000fd5b6000610d17826109b6565b91507fffffffffffffffffffffffffffffffffffffffffffffffffffffffffffffffff8203610d4957610d48610cdd565b5b600182019050919050565b6000610d5f826109b6565b9150610d6a836109b6565b9250828203905081811115610d8257610d81610cdd565b5b92915050565b6000610d93826109b6565b9150610d9e836109b6565b9250828201905080821115610db657610db5610cdd565b5b92915050565b7f4e487b7100000000000000000000000000000000000000000000000000000000600052603260045260246000fd5b7f4e487b7100000000000000000000000000000000000000000000000000000000600052602260045260246000fd5b60006002820490506001821680610e3257607f821691505b602082108103610e4557610e44610deb565b5b50919050565b600081549050610e5a81610e1a565b9050919050565b60008190508160005260206000209050919050565b60006020601f8301049050919050565b600082821b905092915050565b600060088302610ec37fffffffffffffffffffffffffffffffffffffffffffffffffffffffffffffffff82610e86565b610ecd8683610e86565b95508019841693508086168417925050509392505050565b6000819050919050565b6000610f0a610f05610f00846109b6565b610ee5565b6109b6565b9050919050565b6000819050919050565b610f2483610eef565b610f38610f3082610f11565b848454610e93565b825550505050565b600090565b610f4d610f40565b610f58818484610f1b565b505050565b5b81811015610f7c57610f71600082610f45565b600181019050610f5e565b5050565b601f821115610fc157610f9281610e61565b610f9b84610e76565b81016020851015610faa578190505b610fbe610fb685610e76565b830182610f5d565b50505b505050565b600082821c905092915050565b6000610fe460001984600802610fc6565b1980831691505092915050565b6000610ffd8383610fd3565b9150826002028217905092915050565b81810361101b5750506110f3565b61102482610e4b565b67ffffffffffffffff81111561103d5761103c610842565b5b6110478254610e1a565b611052828285610f80565b6000601f831160018114611081576000841561106f578287015490505b6110798582610ff1565b8655506110ec565b601f19841661108f87610e61565b965061109a86610e61565b60005b828110156110c25784890154825560018201915060018501945060208101905061109d565b868310156110df57848901546110db601f891682610fd3565b8355505b6001600288020188555050505b5050505050505b565b6110fe82610a66565b67ffffffffffffffff81111561111757611116610842565b5b6111218254610e1a565b61112c828285610f80565b600060209050601f83116001811461115f576000841561114d578287015190505b6111578582610ff1565b8655506111bf565b601f19841661116d86610e61565b60005b8281101561119557848901518255600182019150602085019450602081019050611170565b868310156111b257848901516111ae601f891682610fd3565b8355505b6001600288020188555050505b505050505050565b600060408201905081810360008301526111e18185610c66565b90506111f060208301846109c0565b9392505050565b7f496e646578206f7574206f6620626f756e647300000000000000000000000000600082015250565b600061122d601383610c55565b9150611238826111f7565b602082019050919050565b6000602082019050818103600083015261125c81611220565b905091905056fea2646970667358221220f7138f87fbcbfb3370376705278c1bc61b23d9b4bc96a6eb17977533d9e51b4964736f6c634300081c0033",
  "linkReferences": {},
  "deployedLinkReferences": {}
}